:1000000088C00000A1C000009FC000009DC000008B
:100010009BC0000099C0000097C0000095C0000080
:1000200093C0000091C000003BC2000057C4000014
:10003000FCC4000089C0000087C0000085C000002B
:1000400083C0000081C000007FC000007DC00000B0
:100050007BC0000079C0000077C00000C7C100006D
:1000600073C0000071C000006FC000006DC00000D0
:100070006BC000002403540068006500200052009B
:10008000650070006C0069006300610074006F001F
:100090007200000032034D0061006B0065007200C9
:1000A00042006F007400200049006E00640075007B
:1000B000730074007200690065007300000004039F
:1000C000090409023E00020100C0320904000001D7
:1000D0000202010005240001100424020605240682
:1000E0000001070582030800FF09040100020A005D
:1000F00000000705040240000107058302400001DB
:100100001201100102000008C12315B00100010214
:10011000DC0111241FBECFEFD2E0DEBFCDBF11E066
:10012000A0E0B1E0EEE5F0E102C005900D92A8324A
:10013000B107D9F712E0A8E2B1E001C01D92A134E5
:10014000B107E1F732D089C75BCFECE6F0E0808100
:1001500084608083E8E6F0E080818260808384B7F9
:10016000877F84BF28E10FB6F89420936000109237
:1001700060000FBE88E090E09093CD008093CC00AB
:1001800086E08093CA001092C8002093C900539A59
:100190005A9A8AB180638AB98BB180638BB993D341
:1001A00084E085BD5F9A579A0895CFDF8FB7F894A2
:1001B00020EB31E030933102209330023093330250
:1001C000209332028FBF4FB7F8948BE291E0909367
:1001D000AC018093AB019093AE018093AD014FBF12
:1001E0007894E9018C017EC09FB7F8948091340225
:1001F0009FBF803811F180E091E0DFD697FD1DC0F0
:10020000E0913002F09131028083E0913002F09170
:100210003102CF010196909331028093300222E0A7
:100220008033920711F4C183D2839FB7F8948091F1
:1002300034028F5F809334029FBF8FB7F894F090A1
:10024000AF018FBFA89903C080E68F1508F5A89A63
:100250001DC0E091AD01F091AE016191F093AE014E
:10026000E093AD0121E0EB3AF20721F40093AD01F8
:100270001093AE019FB7F8948091AF0181508093A5
:10028000AF019FBF80E091E038D6FA94FF2009F7D4
:100290009FB7F894809134029FBF8823F9F0E091D2
:1002A0003202F09133029191F0933302E0933202E3
:1002B00082E0E033F80721F4C0933202D093330296
:1002C0002FB7F894809134028150809334022FBF6D
:1002D0008091C80085FFFCCF9093CE0080E091E034
:1002E0005DD644D5809138028823E1F37DCF80E04C
:1002F00091E0B9C580E091E04CC50F931F93CF9377
:100300008C01FC0187859089A189B2898030F1EE4A
:100310009F07F0E0AF07F0E0BF0711F45F9801C05E
:100320005F9AD8015496EC915497E150E23028F44A
:10033000F0E0EA5EFE4FC08101C0C0E0F8018389B1
:10034000823009F4C860D80155968C915597873052
:1003500031F0883031F0863029F4C26003C0C460C7
:1003600001C0C6601092C9001092C8001092CA0065
:10037000F80127853089418952892030F1EE3F0705
:10038000F0E04F07F0E05F0781F0DA01C901B695B0
:10039000A7959795879580589B47A14EBF4FBC0165
:1003A000CD0139D62150304002C020E130E03093F9
:1003B000CD002093CC00C093CA00F80187859089B6
:1003C000A189B2898030F1EE9F07F0E0AF07F0E03D
:1003D000BF0711F480E001C082E08093C80088E983
:1003E0008093C900CF911F910F9108951F920F9292
:1003F0000FB60F9211242F938F939F93EF93FF9338
:100400008091CE009EB39430F9F4E091AB01F0916D
:10041000AC018083E091AB01F091AC01CF0101967A
:100420009093AC018093AB0121E08B3A920721F4C9
:100430008BE291E0928381839FB7F8948091AF0122
:100440008F5F8093AF019FBFFF91EF919F918F913D
:100450002F910F900FBE0F901F9018950895E0EE0A
:10046000F0E0808181608083E8EDF0E080818F772B
:100470008083808180628083109238020895E8ED45
:10048000F0E080818F7D8083808180688083E0EED2
:10049000F0E080818E7F808381E080933802D5C137
:1004A0001F920F920FB60F9211242F933F934F93E9
:1004B0005F936F937F938F939F93AF93BF93EF93CC
:1004C000FF93349905C080913802882309F4D7DF5F
:1004D000349B05C080913802882309F0C0DFFF916A
:1004E000EF91BF91AF919F918F917F916F915F91AC
:1004F0004F913F912F910F900FBE0F901F90189525
:10050000923029F0933041F09130E9F417C08EE336
:1005100090E0E2ECF0E01BC0813041F0813018F057
:10052000823089F406C0EEEBF0E005C0E4E9F0E0CB
:1005300002C0E4E7F0E0849190E009C082E190E03D
:10054000E0E0F1E004C080E090E0E0E0F0E0DA011B
:100550001196FC93EE930895AC0128E030E080E022
:1005600003C08F5F220F331F24173507D0F3829506
:10057000807F08958093E900EBEEF0E08081816058
:100580008083EDEEF0E010826093EC004083809178
:10059000EE00881F8827881F08951092F40080E0DD
:1005A0008093E9001092F0001092E8001092ED00A4
:1005B0009091EB009E7F9093EB008F5F853081F7E9
:1005C00008958091390287FF11C003C08EB388233C
:1005D000B1F08091E80082FFF9CF8091E8008B773D
:1005E0008093E80008958EB3882349F08091E80055
:1005F00080FFF9CF8091E8008E778093E80008951E
:1006000085E69091EC0090FF05C09091E80090FF86
:1006100005C01BC09091E80092FD17C09EB39923BE
:10062000B1F09EB39530A9F09091EB0095FD13C009
:100630009091E10092FFE5CF9091E1009B7F909334
:10064000E1008150F1F684E0089580E0089582E0B1
:10065000089583E0089581E0089520913F0230914C
:1006600040022617370720F4B901FC0190E032C0A0
:1006700061157105D1F72091E8002E772093E800ED
:10068000F4CF8091E80083FD37C08091E80082FDBF
:100690002DC08EB38823A1F18EB3853079F180917E
:1006A000E80080FF17C08091F20006C091919093FE
:1006B000F100615070408F5F6115710511F0883055
:1006C000A8F391E0883009F090E08091E8008E77FF
:1006D0008093E80061157105A1F6992391F606C093
:1006E0008EB3882369F08EB3853061F08091E80085
:1006F00082FFF6CF80E0089581E0089583E00895B9
:1007000082E0089583E0089520913F0230914002F5
:100710002617370720F4B9019C0190E035C0611518
:100720007105D1F72091E8002E772093E800F4CFEF
:100730008091E80083FD3AC08091E80082FD30C0DE
:100740008EB38823B9F18EB3853091F18091E800A2
:1007500080FF1AC08091F20009C0F9012F5F3F4F5E
:10076000E491E093F100615070408F5F6115710575
:1007700011F0883090F391E0883009F090E080919A
:10078000E8008E778093E8006115710589F699235A
:1007900079F606C08EB3882369F08EB3853061F098
:1007A0008091E80082FFF6CF80E0089581E008950F
:1007B00083E0089582E0089583E00895611571054E
:1007C00029F42091E8002B772093E800382F292F77
:1007D00024C08091E80083FD30C08EB3882389F166
:1007E0008EB3853061F18091E80082FFF2CFE32F74
:1007F000F22F08C08091F10081933E2F2F2F61507E
:10080000704031F03E2F2F2F8091F200882391F716
:100810008091E8008B778093E80061157105C9F637
:1008200006C08EB3882369F08EB3853061F0809165
:10083000E80080FFF6CF80E0089581E0089583E02E
:10084000089582E0089583E0089542D044D01EBA0E
:1008500010923702109236021092350284E089BD60
:1008600089B5826089BD09B400FEFDCF8091D800B2
:10087000982F9F779093D80080688093D8008091BC
:1008800063008E7F809363008091D8008F7D80937A
:10089000D8008091E0008E7F8093E0008091E1009D
:1008A0008E7F8093E1008091E20081608093E2007E
:1008B0008091E100877F8093E1008091E200886071
:1008C0008093E2000895C1DF81E0809338020895AB
:1008D0001092E20008951092E10008951F920F9285
:1008E0000FB60F9211242F933F934F935F936F9303
:1008F0007F938F939F93AF93BF93EF93FF938091D9
:10090000E10080FF1BC08091E20080FF17C0809152
:10091000E1008E7F8093E1008091E2008E7F8093E2
:10092000E2008091E20080618093E2008091D80033
:1009300080628093D80019BC1EBA17D28091E10062
:1009400084FF29C08091E20084FF25C084E089BD36
:1009500089B5826089BD09B400FEFDCF8091D800C1
:100960008F7D8093D8008091E1008F7E8093E1009D
:100970008091E2008F7E8093E2008091E2008160AE
:100980008093E20080913702882311F084E001C057
:1009900081E08EBBEAD18091E10083FF27C0809186
:1009A000E20083FF23C08091E100877F8093E10014
:1009B00082E08EBB109237028091E1008E7F80939F
:1009C000E1008091E2008E7F8093E2008091E2005E
:1009D00080618093E200E1DD80E060E042E0CADD1A
:1009E0008091F00088608093F000BFD18091E10099
:1009F00082FF0AC08091E20082FF06C08091E10080
:100A00008B7F8093E100B1D1FF91EF91BF91AF91C6
:100A10009F918F917F916F915F914F913F912F9116
:100A20000F900FBE0F901F9018951F920F920FB648
:100A30000F921124EF92FF920F931F932F933F93E6
:100A40004F935F936F937F938F939F93AF93BF93D6
:100A5000EF93FF93CF93DF930F92CDB7DEB789EE7D
:100A6000E82EF12CF70180818770108200EF10E0F2
:100A7000F8019081977F90837894898322D0F894AD
:100A8000F7011082F8019081986090838981F701C5
:100A900080830F90DF91CF91FF91EF91BF91AF9144
:100AA0009F918F917F916F915F914F913F912F9186
:100AB0001F910F91FF90EF900F900FBE0F901F901E
:100AC00018951F93CF93DF93CDB7DEB7AC970FB6D2
:100AD000F894DEBF0FBECDBF80E0E9E3F2E0909175
:100AE000F10091938F5F8830D1F780913902209186
:100AF0003A02253009F484C0263040F42130A1F1B7
:100B0000213070F0233009F017C12EC0283009F4CD
:100B1000E9C0293009F4F8C0263009F00DC18EC0B3
:100B2000803821F0823809F007C108C08091350271
:100B300090913602992371F082600CC080913D0241
:100B400087708093E9009091EB0081E095FF80E051
:100B50001092E9009091E800977F9093E8008093CD
:100B6000F1001092F100C9C0882319F0823009F019
:100B7000E3C090E08F719070009729F0823091056A
:100B800009F0DBC00BC080913B02813009F0D5C079
:100B9000233009F080E0809336022CC080913B0224
:100BA000882341F520913D02277009F4C6C02093A7
:100BB000E9008091EB0080FFC0C080913A02833051
:100BC00021F48091EB00806213C08091EB00806182
:100BD0008093EB0081E090E002C0880F991F2A9576
:100BE000E2F78093EA001092EA008091EB008860BF
:100BF0008093EB001092E9008091E800877F80C02D
:100C0000882309F099C010913B028091E800877F0A
:100C10008093E800D6DC04C08EB3882309F48DC02D
:100C20008091E80080FFF8CF1F7711F083E001C0CA
:100C300082E08EBB10681093E3007FC08058823042
:100C400008F07AC080913B0290913C0223E08C3DF9
:100C5000920789F583E08C838AE28B833FB7F8940F
:100C6000DE01159680E090E02EE041E2E22FF0E018
:100C700040935700E49180FF03C0E295EF702F5F2F
:100C8000EF705E2F505D5A3308F0595F5C931196F8
:100C90001C921197129601968431910539F73FBF46
:100CA0008091E800877F8093E800CE0103966AE296
:100CB00070E0D3DC11C060913D02AE014F5F5F4F29
:100CC0001FDCBC010097C9F18091E800877F809309
:100CD000E80089819A8118DD8091E8008B77809304
:100CE000E8002BC0803841F58091E800877F809331
:100CF000E800809137028093F1008091E8008E77C0
:100D00008093E8005EDC19C08823B1F490913B0227
:100D1000923098F48091E800877F8093E800909368
:100D200037024FDC80913702882311F084E001C044
:100D300083E08EBBDCDA01C0DDDA8091E80083FF5E
:100D40000AC08091EB0080628093EB008091E80004
:100D5000877F8093E800AC960FB6F894DEBF0FBE95
:100D6000CDBFDF91CF911F9108950895CF938EB39A
:100D7000882361F0C091E900C7701092E90080916A
:100D8000E80083FF01C09DDEC093E900CF91089584
:100D90000895CF93DF93EC018091E80083FF60C05A
:100DA000888190E020913D0230913E02281739075A
:100DB00009F056C080913A02813261F0823220F40B
:100DC000803209F04DC019C0823269F1833209F0D6
:100DD00047C038C080913902813A09F041C0809102
:100DE000E800877F8093E800CE010F9667E070E00F
:100DF00034DC8091E8008B7713C080913902813216
:100E000079F58091E800877F8093E800CE010F9606
:100E100067E070E0D3DCCE0170DA8091E8008E7775
:100E20008093E8001DC0809139028132C9F480911D
:100E3000E800877F8093E80080913B028D87CE0198
:100E40000DDB0DC080913902813251F48091E800B0
:100E5000877F8093E800CE0160913B0299DFB1DB90
:100E6000DF91CF9108950F931F93CF93DF93EC0100
:100E70000D96FC0189E0DF011D928A95E9F72A8130
:100E80003B8109818C81882311F014E001C010E0BE
:100E9000C90162DB412F482B4260802F61E86ADB89
:100EA000813029F52E813F810D818885882311F0BD
:100EB00014E001C010E0C9014FDB412F482B426014
:100EC000802F60E857DB813091F42A853B851985B6
:100ED0008C85882311F0C4E001C0C0E0C9013CDB6F
:100EE0004C2F482B4260812F61EC44DB01C080E035
:100EF000DF91CF911F910F910895CF93FC01C62FE1
:100F00008EB38430E1F44785508961897289411537
:100F100051056105710599F081818093E900809107
:100F2000E80085FD08C08091E8008E778093E80096
:100F300067DB882329F4C093F10080E001C082E0E0
:100F4000CF910895FC018EB3843011F54785508907
:100F5000618972894115510561057105C9F0818169
:100F60008093E9008091F2008823A1F09091E8003D
:100F70008091E8008E778093E80095FD0DC040DBFE
:100F8000882359F49091E8009E779093E8000895A3
:100F900082E0089580E0089580E008952EB3243023
:100FA00059F4FC01478550896189728941155105C1
:100FB0006105710509F0C6CF0895FC018EB3843038
:100FC00021F547855089618972894115510561056F
:100FD0007105D9F085818093E9008091E80082FF56
:100FE00017C08091F200882321F08091F10090E0F9
:100FF00002C08FEF9FEF2091F200222359F420913D
:10100000E8002B772093E80008958FEF9FEF089575
:101010008FEF9FEF0895A1E21A2EAA1BBB1BFD01C3
:101020000DC0AA1FBB1FEE1FFF1FA217B307E407C7
:10103000F50720F0A21BB30BE40BF50B661F771F1F
:10104000881F991F1A9469F76095709580959095FF
:0E1050009B01AC01BD01CF010895F894FFCFC4
:10105E0000034000000440000002080000000000F1
:10106E000000000000003020A12000000000010060
:08107E00A101000000000000C8
:00000001FF
